{"abi":[{"type":"constructor","inputs":[{"name":"__name","type":"string","internalType":"string"},{"name":"__symbol","type":"string","internalType":"string"}],"stateMutability":"nonpayable"},{"type":"function","name":"DEFAULT_ADMIN_ROLE","inputs":[],"outputs":[{"name":"","type":"bytes32","internalType":"bytes32"}],"stateMutability":"view"},{"type":"function","name":"approve","inputs":[{"name":"to","type":"address","internalType":"address"},{"name":"tokenId","type":"uint256","internalType":"uint256"}],"outputs":[],"stateMutability":"nonpayable"},{"type":"function","name":"balanceOf","inputs":[{"name":"owner","type":"address","internalType":"address"}],"outputs":[{"name":"","type":"uint256","internalType":"uint256"}],"stateMutability":"view"},{"type":"function","name":"burn","inputs":[{"name":"tokenId","type":"uint256","internalType":"uint256"}],"outputs":[],"stateMutability":"nonpayable"},{"type":"function","name":"freezeMetadata","inputs":[],"outputs":[],"stateMutability":"nonpayable"},{"type":"function","name":"getApproved","inputs":[{"name":"tokenId","type":"uint256","internalType":"uint256"}],"outputs":[{"name":"","type":"address","internalType":"address"}],"stateMutability":"view"},{"type":"function","name":"getRoleAdmin","inputs":[{"name":"role","type":"bytes32","internalType":"bytes32"}],"outputs":[{"name":"","type":"bytes32","internalType":"bytes32"}],"stateMutability":"view"},{"type":"function","name":"grantRole","inputs":[{"name":"role","type":"bytes32","internalType":"bytes32"},{"name":"account","type":"address","internalType":"address"}],"outputs":[],"stateMutability":"nonpayable"},{"type":"function","name":"hasRole","inputs":[{"name":"role","type":"bytes32","internalType":"bytes32"},{"name":"account","type":"address","internalType":"address"}],"outputs":[{"name":"","type":"bool","internalType":"bool"}],"stateMutability":"view"},{"type":"function","name":"isApprovedForAll","inputs":[{"name":"owner","type":"address","internalType":"address"},{"name":"operator","type":"address","internalType":"address"}],"outputs":[{"name":"","type":"bool","internalType":"bool"}],"stateMutability":"view"},{"type":"function","name":"maxSupply","inputs":[],"outputs":[{"name":"","type":"uint256","internalType":"uint256"}],"stateMutability":"view"},{"type":"function","name":"metadataIsFrozen","inputs":[],"outputs":[{"name":"","type":"bool","internalType":"bool"}],"stateMutability":"view"},{"type":"function","name":"mint","inputs":[{"name":"__account","type":"address","internalType":"address"},{"name":"__amount","type":"uint256","internalType":"uint256"}],"outputs":[],"stateMutability":"nonpayable"},{"type":"function","name":"mintLimit","inputs":[],"outputs":[{"name":"","type":"uint256","internalType":"uint256"}],"stateMutability":"view"},{"type":"function","name":"name","inputs":[],"outputs":[{"name":"","type":"string","internalType":"string"}],"stateMutability":"view"},{"type":"function","name":"nextTokenID","inputs":[],"outputs":[{"name":"","type":"uint256","internalType":"uint256"}],"stateMutability":"view"},{"type":"function","name":"owner","inputs":[],"outputs":[{"name":"","type":"address","internalType":"address"}],"stateMutability":"view"},{"type":"function","name":"ownerOf","inputs":[{"name":"tokenId","type":"uint256","internalType":"uint256"}],"outputs":[{"name":"","type":"address","internalType":"address"}],"stateMutability":"view"},{"type":"function","name":"refreshMetadata","inputs":[{"name":"__tokenID","type":"uint256","internalType":"uint256"}],"outputs":[],"stateMutability":"nonpayable"},{"type":"function","name":"refreshMetadataAll","inputs":[],"outputs":[],"stateMutability":"nonpayable"},{"type":"function","name":"renounceOwnership","inputs":[],"outputs":[],"stateMutability":"nonpayable"},{"type":"function","name":"renounceRole","inputs":[{"name":"role","type":"bytes32","internalType":"bytes32"},{"name":"account","type":"address","internalType":"address"}],"outputs":[],"stateMutability":"nonpayable"},{"type":"function","name":"revokeRole","inputs":[{"name":"role","type":"bytes32","internalType":"bytes32"},{"name":"account","type":"address","internalType":"address"}],"outputs":[],"stateMutability":"nonpayable"},{"type":"function","name":"safeTransferFrom","inputs":[{"name":"from","type":"address","internalType":"address"},{"name":"to","type":"address","internalType":"address"},{"name":"tokenId","type":"uint256","internalType":"uint256"}],"outputs":[],"stateMutability":"nonpayable"},{"type":"function","name":"safeTransferFrom","inputs":[{"name":"from","type":"address","internalType":"address"},{"name":"to","type":"address","internalType":"address"},{"name":"tokenId","type":"uint256","internalType":"uint256"},{"name":"data","type":"bytes","internalType":"bytes"}],"outputs":[],"stateMutability":"nonpayable"},{"type":"function","name":"setApprovalForAll","inputs":[{"name":"operator","type":"address","internalType":"address"},{"name":"approved","type":"bool","internalType":"bool"}],"outputs":[],"stateMutability":"nonpayable"},{"type":"function","name":"setBaseURI","inputs":[{"name":"__baseURI","type":"string","internalType":"string"}],"outputs":[],"stateMutability":"nonpayable"},{"type":"function","name":"setMaxSupply","inputs":[{"name":"__maxSupply","type":"uint256","internalType":"uint256"}],"outputs":[],"stateMutability":"nonpayable"},{"type":"function","name":"setMintLimit","inputs":[{"name":"__mintLimit","type":"uint256","internalType":"uint256"}],"outputs":[],"stateMutability":"nonpayable"},{"type":"function","name":"supportsInterface","inputs":[{"name":"__interfaceId","type":"bytes4","internalType":"bytes4"}],"outputs":[{"name":"","type":"bool","internalType":"bool"}],"stateMutability":"view"},{"type":"function","name":"symbol","inputs":[],"outputs":[{"name":"","type":"string","internalType":"string"}],"stateMutability":"view"},{"type":"function","name":"tokenByIndex","inputs":[{"name":"index","type":"uint256","internalType":"uint256"}],"outputs":[{"name":"","type":"uint256","internalType":"uint256"}],"stateMutability":"view"},{"type":"function","name":"tokenOfOwnerByIndex","inputs":[{"name":"owner","type":"address","internalType":"address"},{"name":"index","type":"uint256","internalType":"uint256"}],"outputs":[{"name":"","type":"uint256","internalType":"uint256"}],"stateMutability":"view"},{"type":"function","name":"tokenURI","inputs":[{"name":"tokenId","type":"uint256","internalType":"uint256"}],"outputs":[{"name":"","type":"string","internalType":"string"}],"stateMutability":"view"},{"type":"function","name":"totalSupply","inputs":[],"outputs":[{"name":"","type":"uint256","internalType":"uint256"}],"stateMutability":"view"},{"type":"function","name":"transferFrom","inputs":[{"name":"from","type":"address","internalType":"address"},{"name":"to","type":"address","internalType":"address"},{"name":"tokenId","type":"uint256","internalType":"uint256"}],"outputs":[],"stateMutability":"nonpayable"},{"type":"function","name":"transferOwnership","inputs":[{"name":"newOwner","type":"address","internalType":"address"}],"outputs":[],"stateMutability":"nonpayable"},{"type":"event","name":"Approval","inputs":[{"name":"owner","type":"address","indexed":true,"internalType":"address"},{"name":"approved","type":"address","indexed":true,"internalType":"address"},{"name":"tokenId","type":"uint256","indexed":true,"internalType":"uint256"}],"anonymous":false},{"type":"event","name":"ApprovalForAll","inputs":[{"name":"owner","type":"address","indexed":true,"internalType":"address"},{"name":"operator","type":"address","indexed":true,"internalType":"address"},{"name":"approved","type":"bool","indexed":false,"internalType":"bool"}],"anonymous":false},{"type":"event","name":"BatchMetadataUpdate","inputs":[{"name":"__fromTokenId","type":"uint256","indexed":false,"internalType":"uint256"},{"name":"__toTokenId","type":"uint256","indexed":false,"internalType":"uint256"}],"anonymous":false},{"type":"event","name":"MaxSupplyUpdate","inputs":[{"name":"__maxSupply","type":"uint256","indexed":false,"internalType":"uint256"}],"anonymous":false},{"type":"event","name":"MetadataUpdate","inputs":[{"name":"__tokenId","type":"uint256","indexed":false,"internalType":"uint256"}],"anonymous":false},{"type":"event","name":"MintLimitUpdate","inputs":[{"name":"__mintLimit","type":"uint256","indexed":false,"internalType":"uint256"}],"anonymous":false},{"type":"event","name":"OwnershipTransferred","inputs":[{"name":"previousOwner","type":"address","indexed":true,"internalType":"address"},{"name":"newOwner","type":"address","indexed":true,"internalType":"address"}],"anonymous":false},{"type":"event","name":"RoleAdminChanged","inputs":[{"name":"role","type":"bytes32","indexed":true,"internalType":"bytes32"},{"name":"previousAdminRole","type":"bytes32","indexed":true,"internalType":"bytes32"},{"name":"newAdminRole","type":"bytes32","indexed":true,"internalType":"bytes32"}],"anonymous":false},{"type":"event","name":"RoleGranted","inputs":[{"name":"role","type":"bytes32","indexed":true,"internalType":"bytes32"},{"name":"account","type":"address","indexed":true,"internalType":"address"},{"name":"sender","type":"address","indexed":true,"internalType":"address"}],"anonymous":false},{"type":"event","name":"RoleRevoked","inputs":[{"name":"role","type":"bytes32","indexed":true,"internalType":"bytes32"},{"name":"account","type":"address","indexed":true,"internalType":"address"},{"name":"sender","type":"address","indexed":true,"internalType":"address"}],"anonymous":false},{"type":"event","name":"Transfer","inputs":[{"name":"from","type":"address","indexed":true,"internalType":"address"},{"name":"to","type":"address","indexed":true,"internalType":"address"},{"name":"tokenId","type":"uint256","indexed":true,"internalType":"uint256"}],"anonymous":false},{"type":"error","name":"ExceedsMintLimit","inputs":[]},{"type":"error","name":"InvalidMaxSupply","inputs":[]},{"type":"error","name":"InvalidMintLimit","inputs":[]},{"type":"error","name":"MetadataIsFrozen","inputs":[]},{"type":"error","name":"NotEnoughSupply","inputs":[]}],"bytecode":{"object":"0x600b805460ff60a01b19169055620f4240600c556064600d556001600e5560a060405260006080908152600f9062000038908262000276565b503480156200004657600080fd5b5060405162003825380380620038258339810160408190526200006991620003f1565b8181600062000079838262000276565b50600162000088828262000276565b505050620000a56200009f620000d660201b60201c565b620000da565b33620000b36000826200012c565b620000cd6a4d494e5445525f524f4c4560a81b826200012c565b5050506200045b565b3390565b600b80546001600160a01b038381166001600160a01b0319831681179093556040519116919082907f8be0079c531659141344cd1fd0a4f28419497f9722a3daafe3b4186f6b6457e090600090a35050565b6000828152600a602090815260408083206001600160a01b038516845290915290205460ff16620001cd576000828152600a602090815260408083206001600160a01b03851684529091529020805460ff191660011790556200018c3390565b6001600160a01b0316816001600160a01b0316837f2f8788117e7eff1d82e926ec794901d17c78024a50270940304540a733656f0d60405160405180910390a45b5050565b634e487b7160e01b600052604160045260246000fd5b600181811c90821680620001fc57607f821691505b6020821081036200021d57634e487b7160e01b600052602260045260246000fd5b50919050565b601f8211156200027157600081815260208120601f850160051c810160208610156200024c5750805b601f850160051c820191505b818110156200026d5782815560010162000258565b5050505b505050565b81516001600160401b03811115620002925762000292620001d1565b620002aa81620002a38454620001e7565b8462000223565b602080601f831160018114620002e25760008415620002c95750858301515b600019600386901b1c1916600185901b1785556200026d565b600085815260208120601f198616915b828110156200031357888601518255948401946001909101908401620002f2565b5085821015620003325787850151600019600388901b60f8161c191681555b5050505050600190811b01905550565b600082601f8301126200035457600080fd5b81516001600160401b0380821115620003715762000371620001d1565b604051601f8301601f19908116603f011681019082821181831017156200039c576200039c620001d1565b81604052838152602092508683858801011115620003b957600080fd5b600091505b83821015620003dd5785820183015181830184015290820190620003be565b600093810190920192909252949350505050565b600080604083850312156200040557600080fd5b82516001600160401b03808211156200041d57600080fd5b6200042b8683870162000342565b935060208501519150808211156200044257600080fd5b50620004518582860162000342565b9150509250929050565b6133ba806200046b6000396000f3fe608060405234801561001057600080fd5b50600436106102775760003560e01c806370a0823111610160578063b88d4fde116100d8578063d5abeb011161008c578063e985e9c511610071578063e985e9c514610550578063f101e48114610599578063f2fde38b146105a157600080fd5b8063d5abeb0114610535578063d95ba42f1461053d57600080fd5b8063cf880fea116100bd578063cf880fea146104f7578063d111515d1461051a578063d547741f1461052257600080fd5b8063b88d4fde146104d1578063c87b56dd146104e457600080fd5b806395d89b411161012f5780639e6a1d7d116101145780639e6a1d7d146104a3578063a217fddf146104b6578063a22cb465146104be57600080fd5b806395d89b4114610493578063996517cf1461049b57600080fd5b806370a0823114610414578063715018a6146104275780638da5cb5b1461042f57806391d148541461044d57600080fd5b80632f745c59116101f357806342966c68116101c257806355f804b3116101a757806355f804b3146103db5780636352211e146103ee5780636f8b44b01461040157600080fd5b806342966c68146103b55780634f6ccce7146103c857600080fd5b80632f745c591461036957806336568abe1461037c57806340c10f191461038f57806342842e0e146103a257600080fd5b806318160ddd1161024a57806323b872dd1161022f57806323b872dd14610320578063248a9ca3146103335780632f2ff15d1461035657600080fd5b806318160ddd146103065780631b670e071461031857600080fd5b806301ffc9a71461027c57806306fdde03146102a4578063081812fc146102b9578063095ea7b3146102f1575b600080fd5b61028f61028a366004612c01565b6105b4565b60405190151581526020015b60405180910390f35b6102ac6105c5565b60405161029b9190612c8c565b6102cc6102c7366004612c9f565b610657565b60405173ffffffffffffffffffffffffffffffffffffffff909116815260200161029b565b6103046102ff366004612ce1565b61068b565b005b6008545b60405190815260200161029b565b61030461081c565b61030461032e366004612d0b565b61086e565b61030a610341366004612c9f565b6000908152600a602052604090206001015490565b610304610364366004612d47565b610910565b61030a610377366004612ce1565b610935565b61030461038a366004612d47565b610a04565b61030461039d366004612ce1565b610ab7565b6103046103b0366004612d0b565b610bb1565b6103046103c3366004612c9f565b610bcc565b61030a6103d6366004612c9f565b610c6d565b6103046103e9366004612e36565b610d2b565b6102cc6103fc366004612c9f565b610de1565b61030461040f366004612c9f565b610e6d565b61030a610422366004612e7f565b610ef5565b610304610fc3565b600b5473ffffffffffffffffffffffffffffffffffffffff166102cc565b61028f61045b366004612d47565b6000918252600a6020908152604080842073ffffffffffffffffffffffffffffffffffffffff93909316845291905290205460ff1690565b6102ac610fd7565b600d5461030a565b6103046104b1366004612c9f565b610fe6565b61030a600081565b6103046104cc366004612e9a565b611060565b6103046104df366004612ed6565b61106b565b6102ac6104f2366004612c9f565b61110d565b600b5474010000000000000000000000000000000000000000900460ff1661028f565b610304611174565b610304610530366004612d47565b6111c1565b600c5461030a565b61030461054b366004612c9f565b6111e6565b61028f61055e366004612f52565b73ffffffffffffffffffffffffffffffffffffffff918216600090815260056020908152604080832093909416825291909152205460ff1690565b600e5461030a565b6103046105af366004612e7f565b611221565b60006105bf826112d5565b92915050565b6060600080546105d490612f7c565b80601f016020809104026020016040519081016040528092919081815260200182805461060090612f7c565b801561064d5780601f106106225761010080835404028352916020019161064d565b820191906000526020600020905b81548152906001019060200180831161063057829003601f168201915b5050505050905090565b60006106628261132b565b5060009081526004602052604090205473ffffffffffffffffffffffffffffffffffffffff1690565b600061069682610de1565b90508073ffffffffffffffffffffffffffffffffffffffff168373ffffffffffffffffffffffffffffffffffffffff1603610758576040517f08c379a000000000000000000000000000000000000000000000000000000000815260206004820152602160248201527f4552433732313a20617070726f76616c20746f2063757272656e74206f776e6560448201527f720000000000000000000000000000000000000000000000000000000000000060648201526084015b60405180910390fd5b3373ffffffffffffffffffffffffffffffffffffffff821614806107815750610781813361055e565b61080d576040517f08c379a000000000000000000000000000000000000000000000000000000000815260206004820152603d60248201527f4552433732313a20617070726f76652063616c6c6572206973206e6f7420746f60448201527f6b656e206f776e6572206f7220617070726f76656420666f7220616c6c000000606482015260840161074f565b61081783836113b6565b505050565b600061082781611456565b7f6bd5c950a8d8df17f772f5af37cb3655737899cbf903264b9795592da439661c600161085360085490565b6040805192835260208301919091520160405180910390a150565b610879335b82611460565b610905576040517f08c379a000000000000000000000000000000000000000000000000000000000815260206004820152602d60248201527f4552433732313a2063616c6c6572206973206e6f7420746f6b656e206f776e6560448201527f72206f7220617070726f76656400000000000000000000000000000000000000606482015260840161074f565b610817838383611520565b6000828152600a602052604090206001015461092b81611456565b6108178383611828565b600061094083610ef5565b82106109ce576040517f08c379a000000000000000000000000000000000000000000000000000000000815260206004820152602b60248201527f455243373231456e756d657261626c653a206f776e657220696e646578206f7560448201527f74206f6620626f756e6473000000000000000000000000000000000000000000606482015260840161074f565b5073ffffffffffffffffffffffffffffffffffffffff919091166000908152600660209081526040808320938352929052205490565b73ffffffffffffffffffffffffffffffffffffffff81163314610aa9576040517f08c379a000000000000000000000000000000000000000000000000000000000815260206004820152602f60248201527f416363657373436f6e74726f6c3a2063616e206f6e6c792072656e6f756e636560448201527f20726f6c657320666f722073656c660000000000000000000000000000000000606482015260840161074f565b610ab3828261191c565b5050565b7f4d494e5445525f524f4c45000000000000000000000000000000000000000000610ae181611456565b600c5482610aee60085490565b610af89190612ffe565b1115610b30576040517f74d9e0b900000000000000000000000000000000000000000000000000000000815260040160405180910390fd5b600d54821115610b6c576040517fd5c0322600000000000000000000000000000000000000000000000000000000815260040160405180910390fd5b60005b82811015610bab57600e805460009182610b8883613011565b919050559050610b9885826119d7565b5080610ba381613011565b915050610b6f565b50505050565b6108178383836040518060200160405280600081525061106b565b610bd533610873565b610c61576040517f08c379a000000000000000000000000000000000000000000000000000000000815260206004820152602d60248201527f4552433732313a2063616c6c6572206973206e6f7420746f6b656e206f776e6560448201527f72206f7220617070726f76656400000000000000000000000000000000000000606482015260840161074f565b610c6a816119f1565b50565b6000610c7860085490565b8210610d06576040517f08c379a000000000000000000000000000000000000000000000000000000000815260206004820152602c60248201527f455243373231456e756d657261626c653a20676c6f62616c20696e646578206f60448201527f7574206f6620626f756e64730000000000000000000000000000000000000000606482015260840161074f565b60088281548110610d1957610d19613049565b90600052602060002001549050919050565b6000610d3681611456565b600b5474010000000000000000000000000000000000000000900460ff1615610d8b576040517fb087bbf300000000000000000000000000000000000000000000000000000000815260040160405180910390fd5b600f610d9783826130c6565b507f6bd5c950a8d8df17f772f5af37cb3655737899cbf903264b9795592da439661c6001610dc460085490565b604080519283526020830191909152015b60405180910390a15050565b60008181526002602052604081205473ffffffffffffffffffffffffffffffffffffffff16806105bf576040517f08c379a000000000000000000000000000000000000000000000000000000000815260206004820152601860248201527f4552433732313a20696e76616c696420746f6b656e2049440000000000000000604482015260640161074f565b6000610e7881611456565b6001600e54610e8791906131e0565b821015610ec0576040517f19bcc14c00000000000000000000000000000000000000000000000000000000815260040160405180910390fd5b600c8290556040518281527fce5e8ad5e6a2aec0715485c9ec6f8e39f9f1cbf3f0f54348f1b7ebce527f9f4290602001610dd5565b600073ffffffffffffffffffffffffffffffffffffffff8216610f9a576040517f08c379a000000000000000000000000000000000000000000000000000000000815260206004820152602960248201527f4552433732313a2061646472657373207a65726f206973206e6f74206120766160448201527f6c6964206f776e65720000000000000000000000000000000000000000000000606482015260840161074f565b5073ffffffffffffffffffffffffffffffffffffffff1660009081526003602052604090205490565b610fcb611ad7565b610fd56000611b58565b565b6060600180546105d490612f7c565b6000610ff181611456565b8160000361102b576040517f7a89e56b00000000000000000000000000000000000000000000000000000000815260040160405180910390fd5b600d8290556040518281527f6ef14ced400642a7be08da6a9e0e9f1b7eb3fdce4ffa52083b253742ff2083ee90602001610dd5565b610ab3338383611bcf565b6110753383611460565b611101576040517f08c379a000000000000000000000000000000000000000000000000000000000815260206004820152602d60248201527f4552433732313a2063616c6c6572206973206e6f7420746f6b656e206f776e6560448201527f72206f7220617070726f76656400000000000000000000000000000000000000606482015260840161074f565b610bab84848484611cfc565b60606111188261132b565b6000611122611d9f565b90506000815111611142576040518060200160405280600081525061116d565b8061114c84611dae565b60405160200161115d9291906131f3565b6040516020818303038152906040525b9392505050565b600061117f81611456565b50600b80547fffffffffffffffffffffff00ffffffffffffffffffffffffffffffffffffffff1674010000000000000000000000000000000000000000179055565b6000828152600a60205260409020600101546111dc81611456565b610817838361191c565b60006111f181611456565b6040518281527ff8e1a15aba9398e019f0b49df1a4fde98ee17ae345cb5f6b5e2c27f5033e8ce790602001610dd5565b611229611ad7565b73ffffffffffffffffffffffffffffffffffffffff81166112cc576040517f08c379a000000000000000000000000000000000000000000000000000000000815260206004820152602660248201527f4f776e61626c653a206e6577206f776e657220697320746865207a65726f206160448201527f6464726573730000000000000000000000000000000000000000000000000000606482015260840161074f565b610c6a81611b58565b60007fffffffff0000000000000000000000000000000000000000000000000000000082167f7965db0b0000000000000000000000000000000000000000000000000000000014806105bf57506105bf82611e6c565b60008181526002602052604090205473ffffffffffffffffffffffffffffffffffffffff16610c6a576040517f08c379a000000000000000000000000000000000000000000000000000000000815260206004820152601860248201527f4552433732313a20696e76616c696420746f6b656e2049440000000000000000604482015260640161074f565b600081815260046020526040902080547fffffffffffffffffffffffff00000000000000000000000000000000000000001673ffffffffffffffffffffffffffffffffffffffff8416908117909155819061141082610de1565b73ffffffffffffffffffffffffffffffffffffffff167f8c5be1e5ebec7d5bd14f71427d1e84f3dd0314c0f7b2291e5b200ac8c7c3b92560405160405180910390a45050565b610c6a8133611ec2565b60008061146c83610de1565b90508073ffffffffffffffffffffffffffffffffffffffff168473ffffffffffffffffffffffffffffffffffffffff1614806114da575073ffffffffffffffffffffffffffffffffffffffff80821660009081526005602090815260408083209388168352929052205460ff165b8061151857508373ffffffffffffffffffffffffffffffffffffffff1661150084610657565b73ffffffffffffffffffffffffffffffffffffffff16145b949350505050565b8273ffffffffffffffffffffffffffffffffffffffff1661154082610de1565b73ffffffffffffffffffffffffffffffffffffffff16146115e3576040517f08c379a000000000000000000000000000000000000000000000000000000000815260206004820152602560248201527f4552433732313a207472616e736665722066726f6d20696e636f72726563742060448201527f6f776e6572000000000000000000000000000000000000000000000000000000606482015260840161074f565b73ffffffffffffffffffffffffffffffffffffffff8216611685576040517f08c379a0000000000000000000000000000000000000000000000000000000008152602060048201526024808201527f4552433732313a207472616e7366657220746f20746865207a65726f2061646460448201527f7265737300000000000000000000000000000000000000000000000000000000606482015260840161074f565b6116928383836001611f7c565b8273ffffffffffffffffffffffffffffffffffffffff166116b282610de1565b73ffffffffffffffffffffffffffffffffffffffff1614611755576040517f08c379a000000000000000000000000000000000000000000000000000000000815260206004820152602560248201527f4552433732313a207472616e736665722066726f6d20696e636f72726563742060448201527f6f776e6572000000000000000000000000000000000000000000000000000000606482015260840161074f565b600081815260046020908152604080832080547fffffffffffffffffffffffff000000000000000000000000000000000000000090811690915573ffffffffffffffffffffffffffffffffffffffff8781168086526003855283862080547fffffffffffffffffffffffffffffffffffffffffffffffffffffffffffffffff01905590871680865283862080546001019055868652600290945282852080549092168417909155905184937fddf252ad1be2c89b69c2b068fc378daa952ba7f163c4a11628f55a4df523b3ef91a4505050565b6000828152600a6020908152604080832073ffffffffffffffffffffffffffffffffffffffff8516845290915290205460ff16610ab3576000828152600a6020908152604080832073ffffffffffffffffffffffffffffffffffffffff85168452909152902080547fffffffffffffffffffffffffffffffffffffffffffffffffffffffffffffff001660011790556118be3390565b73ffffffffffffffffffffffffffffffffffffffff168173ffffffffffffffffffffffffffffffffffffffff16837f2f8788117e7eff1d82e926ec794901d17c78024a50270940304540a733656f0d60405160405180910390a45050565b6000828152600a6020908152604080832073ffffffffffffffffffffffffffffffffffffffff8516845290915290205460ff1615610ab3576000828152600a6020908152604080832073ffffffffffffffffffffffffffffffffffffffff8516808552925280832080547fffffffffffffffffffffffffffffffffffffffffffffffffffffffffffffff0016905551339285917ff6391f5c32d9c69d2a47ea670b442974b53935d1edc7fd64eb21e047a839171b9190a45050565b610ab3828260405180602001604052806000815250611f88565b60006119fc82610de1565b9050611a0c816000846001611f7c565b611a1582610de1565b600083815260046020908152604080832080547fffffffffffffffffffffffff000000000000000000000000000000000000000090811690915573ffffffffffffffffffffffffffffffffffffffff85168085526003845282852080547fffffffffffffffffffffffffffffffffffffffffffffffffffffffffffffffff0190558785526002909352818420805490911690555192935084927fddf252ad1be2c89b69c2b068fc378daa952ba7f163c4a11628f55a4df523b3ef908390a45050565b600b5473ffffffffffffffffffffffffffffffffffffffff163314610fd5576040517f08c379a000000000000000000000000000000000000000000000000000000000815260206004820181905260248201527f4f776e61626c653a2063616c6c6572206973206e6f7420746865206f776e6572604482015260640161074f565b600b805473ffffffffffffffffffffffffffffffffffffffff8381167fffffffffffffffffffffffff0000000000000000000000000000000000000000831681179093556040519116919082907f8be0079c531659141344cd1fd0a4f28419497f9722a3daafe3b4186f6b6457e090600090a35050565b8173ffffffffffffffffffffffffffffffffffffffff168373ffffffffffffffffffffffffffffffffffffffff1603611c64576040517f08c379a000000000000000000000000000000000000000000000000000000000815260206004820152601960248201527f4552433732313a20617070726f766520746f2063616c6c657200000000000000604482015260640161074f565b73ffffffffffffffffffffffffffffffffffffffff83811660008181526005602090815260408083209487168084529482529182902080547fffffffffffffffffffffffffffffffffffffffffffffffffffffffffffffff001686151590811790915591519182527f17307eab39ab6107e8899845ad3d59bd9653f200f220920489ca2b5937696c31910160405180910390a3505050565b611d07848484611520565b611d138484848461202b565b610bab576040517f08c379a000000000000000000000000000000000000000000000000000000000815260206004820152603260248201527f4552433732313a207472616e7366657220746f206e6f6e20455243373231526560448201527f63656976657220696d706c656d656e7465720000000000000000000000000000606482015260840161074f565b6060600f80546105d490612f7c565b60606000611dbb8361221e565b600101905060008167ffffffffffffffff811115611ddb57611ddb612d73565b6040519080825280601f01601f191660200182016040528015611e05576020820181803683370190505b5090508181016020015b7fffffffffffffffffffffffffffffffffffffffffffffffffffffffffffffffff017f3031323334353637383961626364656600000000000000000000000000000000600a86061a8153600a8504945084611e0f57509392505050565b60007fffffffff0000000000000000000000000000000000000000000000000000000082167f780e9d630000000000000000000000000000000000000000000000000000000014806105bf57506105bf82612300565b6000828152600a6020908152604080832073ffffffffffffffffffffffffffffffffffffffff8516845290915290205460ff16610ab357611f02816123e3565b611f0d836020612402565b604051602001611f1e929190613222565b604080517fffffffffffffffffffffffffffffffffffffffffffffffffffffffffffffffe0818403018152908290527f08c379a000000000000000000000000000000000000000000000000000000000825261074f91600401612c8c565b610bab84848484612645565b611f9283836127e9565b611f9f600084848461202b565b610817576040517f08c379a000000000000000000000000000000000000000000000000000000000815260206004820152603260248201527f4552433732313a207472616e7366657220746f206e6f6e20455243373231526560448201527f63656976657220696d706c656d656e7465720000000000000000000000000000606482015260840161074f565b600073ffffffffffffffffffffffffffffffffffffffff84163b15612213576040517f150b7a0200000000000000000000000000000000000000000000000000000000815273ffffffffffffffffffffffffffffffffffffffff85169063150b7a02906120a29033908990889088906004016132a3565b6020604051808303816000875af19250505080156120fb575060408051601f3d9081017fffffffffffffffffffffffffffffffffffffffffffffffffffffffffffffffe01682019092526120f8918101906132ec565b60015b6121c8573d808015612129576040519150601f19603f3d011682016040523d82523d6000602084013e61212e565b606091505b5080516000036121c0576040517f08c379a000000000000000000000000000000000000000000000000000000000815260206004820152603260248201527f4552433732313a207472616e7366657220746f206e6f6e20455243373231526560448201527f63656976657220696d706c656d656e7465720000000000000000000000000000606482015260840161074f565b805181602001fd5b7fffffffff00000000000000000000000000000000000000000000000000000000167f150b7a0200000000000000000000000000000000000000000000000000000000149050611518565b506001949350505050565b6000807a184f03e93ff9f4daa797ed6e38ed64bf6a1f0100000000000000008310612267577a184f03e93ff9f4daa797ed6e38ed64bf6a1f010000000000000000830492506040015b6d04ee2d6d415b85acef81000000008310612293576d04ee2d6d415b85acef8100000000830492506020015b662386f26fc1000083106122b157662386f26fc10000830492506010015b6305f5e10083106122c9576305f5e100830492506008015b61271083106122dd57612710830492506004015b606483106122ef576064830492506002015b600a83106105bf5760010192915050565b60007fffffffff0000000000000000000000000000000000000000000000000000000082167f80ac58cd00000000000000000000000000000000000000000000000000000000148061239357507fffffffff0000000000000000000000000000000000000000000000000000000082167f5b5e139f00000000000000000000000000000000000000000000000000000000145b806105bf57507f01ffc9a7000000000000000000000000000000000000000000000000000000007fffffffff000000000000000000000000000000000000000000000000000000008316146105bf565b60606105bf73ffffffffffffffffffffffffffffffffffffffff831660145b60606000612411836002613309565b61241c906002612ffe565b67ffffffffffffffff81111561243457612434612d73565b6040519080825280601f01601f19166020018201604052801561245e576020820181803683370190505b5090507f30000000000000000000000000000000000000000000000000000000000000008160008151811061249557612495613049565b60200101907effffffffffffffffffffffffffffffffffffffffffffffffffffffffffffff1916908160001a9053507f7800000000000000000000000000000000000000000000000000000000000000816001815181106124f8576124f8613049565b60200101907effffffffffffffffffffffffffffffffffffffffffffffffffffffffffffff1916908160001a9053506000612534846002613309565b61253f906001612ffe565b90505b60018111156125dc577f303132333435363738396162636465660000000000000000000000000000000085600f166010811061258057612580613049565b1a60f81b82828151811061259657612596613049565b60200101907effffffffffffffffffffffffffffffffffffffffffffffffffffffffffffff1916908160001a90535060049490941c936125d581613320565b9050612542565b50831561116d576040517f08c379a000000000000000000000000000000000000000000000000000000000815260206004820181905260248201527f537472696e67733a20686578206c656e67746820696e73756666696369656e74604482015260640161074f565b60018111156126d6576040517f08c379a000000000000000000000000000000000000000000000000000000000815260206004820152603560248201527f455243373231456e756d657261626c653a20636f6e736563757469766520747260448201527f616e7366657273206e6f7420737570706f727465640000000000000000000000606482015260840161074f565b8173ffffffffffffffffffffffffffffffffffffffff851661273f5761273a81600880546000838152600960205260408120829055600182018355919091527ff3f7a9fe364faab93b216da50a3214154f22a0a2b415b23a84c8169e8b636ee30155565b61277c565b8373ffffffffffffffffffffffffffffffffffffffff168573ffffffffffffffffffffffffffffffffffffffff161461277c5761277c8582612a1c565b73ffffffffffffffffffffffffffffffffffffffff84166127a5576127a081612ad3565b6127e2565b8473ffffffffffffffffffffffffffffffffffffffff168473ffffffffffffffffffffffffffffffffffffffff16146127e2576127e28482612b82565b5050505050565b73ffffffffffffffffffffffffffffffffffffffff8216612866576040517f08c379a000000000000000000000000000000000000000000000000000000000815260206004820181905260248201527f4552433732313a206d696e7420746f20746865207a65726f2061646472657373604482015260640161074f565b60008181526002602052604090205473ffffffffffffffffffffffffffffffffffffffff16156128f2576040517f08c379a000000000000000000000000000000000000000000000000000000000815260206004820152601c60248201527f4552433732313a20746f6b656e20616c7265616479206d696e74656400000000604482015260640161074f565b612900600083836001611f7c565b60008181526002602052604090205473ffffffffffffffffffffffffffffffffffffffff161561298c576040517f08c379a000000000000000000000000000000000000000000000000000000000815260206004820152601c60248201527f4552433732313a20746f6b656e20616c7265616479206d696e74656400000000604482015260640161074f565b73ffffffffffffffffffffffffffffffffffffffff8216600081815260036020908152604080832080546001019055848352600290915280822080547fffffffffffffffffffffffff0000000000000000000000000000000000000000168417905551839291907fddf252ad1be2c89b69c2b068fc378daa952ba7f163c4a11628f55a4df523b3ef908290a45050565b60006001612a2984610ef5565b612a3391906131e0565b600083815260076020526040902054909150808214612a935773ffffffffffffffffffffffffffffffffffffffff841660009081526006602090815260408083208584528252808320548484528184208190558352600790915290208190555b50600091825260076020908152604080842084905573ffffffffffffffffffffffffffffffffffffffff9094168352600681528383209183525290812055565b600854600090612ae5906001906131e0565b60008381526009602052604081205460088054939450909284908110612b0d57612b0d613049565b906000526020600020015490508060088381548110612b2e57612b2e613049565b6000918252602080832090910192909255828152600990915260408082208490558582528120556008805480612b6657612b66613355565b6001900381819060005260206000200160009055905550505050565b6000612b8d83610ef5565b73ffffffffffffffffffffffffffffffffffffffff9093166000908152600660209081526040808320868452825280832085905593825260079052919091209190915550565b7fffffffff0000000000000000000000000000000000000000000000000000000081168114610c6a57600080fd5b600060208284031215612c1357600080fd5b813561116d81612bd3565b60005b83811015612c39578181015183820152602001612c21565b50506000910152565b60008151808452612c5a816020860160208601612c1e565b601f017fffffffffffffffffffffffffffffffffffffffffffffffffffffffffffffffe0169290920160200192915050565b60208152600061116d6020830184612c42565b600060208284031215612cb157600080fd5b5035919050565b803573ffffffffffffffffffffffffffffffffffffffff81168114612cdc57600080fd5b919050565b60008060408385031215612cf457600080fd5b612cfd83612cb8565b946020939093013593505050565b600080600060608486031215612d2057600080fd5b612d2984612cb8565b9250612d3760208501612cb8565b9150604084013590509250925092565b60008060408385031215612d5a57600080fd5b82359150612d6a60208401612cb8565b90509250929050565b7f4e487b7100000000000000000000000000000000000000000000000000000000600052604160045260246000fd5b600067ffffffffffffffff80841115612dbd57612dbd612d73565b604051601f85017fffffffffffffffffffffffffffffffffffffffffffffffffffffffffffffffe0908116603f01168101908282118183101715612e0357612e03612d73565b81604052809350858152868686011115612e1c57600080fd5b858560208301376000602087830101525050509392505050565b600060208284031215612e4857600080fd5b813567ffffffffffffffff811115612e5f57600080fd5b8201601f81018413612e7057600080fd5b61151884823560208401612da2565b600060208284031215612e9157600080fd5b61116d82612cb8565b60008060408385031215612ead57600080fd5b612eb683612cb8565b915060208301358015158114612ecb57600080fd5b809150509250929050565b60008060008060808587031215612eec57600080fd5b612ef585612cb8565b9350612f0360208601612cb8565b925060408501359150606085013567ffffffffffffffff811115612f2657600080fd5b8501601f81018713612f3757600080fd5b612f4687823560208401612da2565b91505092959194509250565b60008060408385031215612f6557600080fd5b612f6e83612cb8565b9150612d6a60208401612cb8565b600181811c90821680612f9057607f821691505b602082108103612fc9577f4e487b7100000000000000000000000000000000000000000000000000000000600052602260045260246000fd5b50919050565b7f4e487b7100000000000000000000000000000000000000000000000000000000600052601160045260246000fd5b808201808211156105bf576105bf612fcf565b60007fffffffffffffffffffffffffffffffffffffffffffffffffffffffffffffffff820361304257613042612fcf565b5060010190565b7f4e487b7100000000000000000000000000000000000000000000000000000000600052603260045260246000fd5b601f82111561081757600081815260208120601f850160051c8101602086101561309f5750805b601f850160051c820191505b818110156130be578281556001016130ab565b505050505050565b815167ffffffffffffffff8111156130e0576130e0612d73565b6130f4816130ee8454612f7c565b84613078565b602080601f83116001811461314757600084156131115750858301515b7fffffffffffffffffffffffffffffffffffffffffffffffffffffffffffffffff600386901b1c1916600185901b1785556130be565b6000858152602081207fffffffffffffffffffffffffffffffffffffffffffffffffffffffffffffffe08616915b8281101561319457888601518255948401946001909101908401613175565b50858210156131d057878501517fffffffffffffffffffffffffffffffffffffffffffffffffffffffffffffffff600388901b60f8161c191681555b5050505050600190811b01905550565b818103818111156105bf576105bf612fcf565b60008351613205818460208801612c1e565b835190830190613219818360208801612c1e565b01949350505050565b7f416363657373436f6e74726f6c3a206163636f756e742000000000000000000081526000835161325a816017850160208801612c1e565b7f206973206d697373696e6720726f6c65200000000000000000000000000000006017918401918201528351613297816028840160208801612c1e565b01602801949350505050565b600073ffffffffffffffffffffffffffffffffffffffff8087168352808616602084015250836040830152608060608301526132e26080830184612c42565b9695505050505050565b6000602082840312156132fe57600080fd5b815161116d81612bd3565b80820281158282048414176105bf576105bf612fcf565b60008161332f5761332f612fcf565b507fffffffffffffffffffffffffffffffffffffffffffffffffffffffffffffffff0190565b7f4e487b7100000000000000000000000000000000000000000000000000000000600052603160045260246000fdfea264697066735822122092a203e63df739ff4e99ddd87230b741fc30a83ca6d81bf741e3112857f463a564736f6c63430008130033","linkReferences":{}},"methodIdentifiers":{"DEFAULT_ADMIN_ROLE()":"a217fddf","approve(address,uint256)":"095ea7b3","balanceOf(address)":"70a08231","burn(uint256)":"42966c68","freezeMetadata()":"d111515d","getApproved(uint256)":"081812fc","getRoleAdmin(bytes32)":"248a9ca3","grantRole(bytes32,address)":"2f2ff15d","hasRole(bytes32,address)":"91d14854","isApprovedForAll(address,address)":"e985e9c5","maxSupply()":"d5abeb01","metadataIsFrozen()":"cf880fea","mint(address,uint256)":"40c10f19","mintLimit()":"996517cf","name()":"06fdde03","nextTokenID()":"f101e481","owner()":"8da5cb5b","ownerOf(uint256)":"6352211e","refreshMetadata(uint256)":"d95ba42f","refreshMetadataAll()":"1b670e07","renounceOwnership()":"715018a6","renounceRole(bytes32,address)":"36568abe","revokeRole(bytes32,address)":"d547741f","safeTransferFrom(address,address,uint256)":"42842e0e","safeTransferFrom(address,address,uint256,bytes)":"b88d4fde","setApprovalForAll(address,bool)":"a22cb465","setBaseURI(string)":"55f804b3","setMaxSupply(uint256)":"6f8b44b0","setMintLimit(uint256)":"9e6a1d7d","supportsInterface(bytes4)":"01ffc9a7","symbol()":"95d89b41","tokenByIndex(uint256)":"4f6ccce7","tokenOfOwnerByIndex(address,uint256)":"2f745c59","tokenURI(uint256)":"c87b56dd","totalSupply()":"18160ddd","transferFrom(address,address,uint256)":"23b872dd","transferOwnership(address)":"f2fde38b"},"id":44}