{"abi":[{"type":"constructor","inputs":[{"name":"__nftContractAddress","type":"address","internalType":"address"},{"name":"__hedzOriginalsContract","type":"address","internalType":"address"},{"name":"__pepeEditionsContractAddress","type":"address","internalType":"address"},{"name":"__zogzEditionsContractAddress","type":"address","internalType":"address"}],"stateMutability":"nonpayable"},{"type":"function","name":"DEFAULT_ADMIN_ROLE","inputs":[],"outputs":[{"name":"","type":"bytes32","internalType":"bytes32"}],"stateMutability":"view"},{"type":"function","name":"discountedMintPrice","inputs":[],"outputs":[{"name":"","type":"uint256","internalType":"uint256"}],"stateMutability":"view"},{"type":"function","name":"getRoleAdmin","inputs":[{"name":"role","type":"bytes32","internalType":"bytes32"}],"outputs":[{"name":"","type":"bytes32","internalType":"bytes32"}],"stateMutability":"view"},{"type":"function","name":"grantRole","inputs":[{"name":"role","type":"bytes32","internalType":"bytes32"},{"name":"account","type":"address","internalType":"address"}],"outputs":[],"stateMutability":"nonpayable"},{"type":"function","name":"hasRole","inputs":[{"name":"role","type":"bytes32","internalType":"bytes32"},{"name":"account","type":"address","internalType":"address"}],"outputs":[{"name":"","type":"bool","internalType":"bool"}],"stateMutability":"view"},{"type":"function","name":"hedzClaims","inputs":[{"name":"__account","type":"address","internalType":"address"}],"outputs":[{"name":"","type":"uint256","internalType":"uint256"}],"stateMutability":"view"},{"type":"function","name":"merkleRoot","inputs":[],"outputs":[{"name":"","type":"bytes32","internalType":"bytes32"}],"stateMutability":"view"},{"type":"function","name":"mint","inputs":[{"name":"__amount","type":"uint256","internalType":"uint256"}],"outputs":[],"stateMutability":"payable"},{"type":"function","name":"mintPrice","inputs":[],"outputs":[{"name":"","type":"uint256","internalType":"uint256"}],"stateMutability":"view"},{"type":"function","name":"mintWithClaimsDiscount","inputs":[{"name":"__amount","type":"uint256","internalType":"uint256"}],"outputs":[],"stateMutability":"payable"},{"type":"function","name":"mintWithOwnerDiscount","inputs":[{"name":"__amount","type":"uint256","internalType":"uint256"},{"name":"__proof","type":"bytes32[]","internalType":"bytes32[]"}],"outputs":[],"stateMutability":"payable"},{"type":"function","name":"mintWithPepeEditionsBurn","inputs":[{"name":"__amount","type":"uint256","internalType":"uint256"},{"name":"__tokenID","type":"uint256","internalType":"uint256"},{"name":"__burnAmount","type":"uint256","internalType":"uint256"}],"outputs":[],"stateMutability":"payable"},{"type":"function","name":"mintWithZogzEditionsBurn","inputs":[{"name":"__amount","type":"uint256","internalType":"uint256"},{"name":"__tokenID","type":"uint256","internalType":"uint256"}],"outputs":[],"stateMutability":"payable"},{"type":"function","name":"owner","inputs":[],"outputs":[{"name":"","type":"address","internalType":"address"}],"stateMutability":"view"},{"type":"function","name":"pause","inputs":[],"outputs":[],"stateMutability":"nonpayable"},{"type":"function","name":"paused","inputs":[],"outputs":[{"name":"","type":"bool","internalType":"bool"}],"stateMutability":"view"},{"type":"function","name":"renounceOwnership","inputs":[],"outputs":[],"stateMutability":"nonpayable"},{"type":"function","name":"renounceRole","inputs":[{"name":"role","type":"bytes32","internalType":"bytes32"},{"name":"account","type":"address","internalType":"address"}],"outputs":[],"stateMutability":"nonpayable"},{"type":"function","name":"revokeRole","inputs":[{"name":"role","type":"bytes32","internalType":"bytes32"},{"name":"account","type":"address","internalType":"address"}],"outputs":[],"stateMutability":"nonpayable"},{"type":"function","name":"setDiscountedMintPrice","inputs":[{"name":"__discountedMintPrice","type":"uint256","internalType":"uint256"}],"outputs":[],"stateMutability":"nonpayable"},{"type":"function","name":"setHedzOriginalsContract","inputs":[{"name":"__hedzOriginalsContractAddress","type":"address","internalType":"address"}],"outputs":[],"stateMutability":"nonpayable"},{"type":"function","name":"setMerkleRoot","inputs":[{"name":"__merkleRoot","type":"bytes32","internalType":"bytes32"}],"outputs":[],"stateMutability":"nonpayable"},{"type":"function","name":"setMintPrice","inputs":[{"name":"__mintPrice","type":"uint256","internalType":"uint256"}],"outputs":[],"stateMutability":"nonpayable"},{"type":"function","name":"setNFTContract","inputs":[{"name":"__nftContractAddress","type":"address","internalType":"address"}],"outputs":[],"stateMutability":"nonpayable"},{"type":"function","name":"setPepeEditionsContract","inputs":[{"name":"__pepeEditionsContractAddress","type":"address","internalType":"address"}],"outputs":[],"stateMutability":"nonpayable"},{"type":"function","name":"setZogzEditionsContract","inputs":[{"name":"__zogzEditionsContractAddress","type":"address","internalType":"address"}],"outputs":[],"stateMutability":"nonpayable"},{"type":"function","name":"supportsInterface","inputs":[{"name":"interfaceId","type":"bytes4","internalType":"bytes4"}],"outputs":[{"name":"","type":"bool","internalType":"bool"}],"stateMutability":"view"},{"type":"function","name":"transferOwnership","inputs":[{"name":"newOwner","type":"address","internalType":"address"}],"outputs":[],"stateMutability":"nonpayable"},{"type":"function","name":"unpause","inputs":[],"outputs":[],"stateMutability":"nonpayable"},{"type":"function","name":"withdraw","inputs":[{"name":"__amount","type":"uint256","internalType":"uint256"}],"outputs":[],"stateMutability":"nonpayable"},{"type":"function","name":"withdrawAll","inputs":[],"outputs":[],"stateMutability":"nonpayable"},{"type":"event","name":"DiscountedMintPriceUpdate","inputs":[{"name":"__discountedMintPrice","type":"uint256","indexed":false,"internalType":"uint256"}],"anonymous":false},{"type":"event","name":"FullSetOwnersUpdate","inputs":[],"anonymous":false},{"type":"event","name":"HedzOriginalsContractUpdate","inputs":[{"name":"__hedzOriginalsContractUpdate","type":"address","indexed":false,"internalType":"address"}],"anonymous":false},{"type":"event","name":"MerkleRootUpdate","inputs":[{"name":"__merkleRoot","type":"bytes32","indexed":false,"internalType":"bytes32"}],"anonymous":false},{"type":"event","name":"MintPriceUpdate","inputs":[{"name":"__mintPrice","type":"uint256","indexed":false,"internalType":"uint256"}],"anonymous":false},{"type":"event","name":"NFTContractUpdate","inputs":[{"name":"__nftContractUpdate","type":"address","indexed":false,"internalType":"address"}],"anonymous":false},{"type":"event","name":"OwnershipTransferred","inputs":[{"name":"previousOwner","type":"address","indexed":true,"internalType":"address"},{"name":"newOwner","type":"address","indexed":true,"internalType":"address"}],"anonymous":false},{"type":"event","name":"Paused","inputs":[{"name":"account","type":"address","indexed":false,"internalType":"address"}],"anonymous":false},{"type":"event","name":"PepeEditionsContractUpdate","inputs":[{"name":"__pepeEditionsContractAddress","type":"address","indexed":false,"internalType":"address"}],"anonymous":false},{"type":"event","name":"RoleAdminChanged","inputs":[{"name":"role","type":"bytes32","indexed":true,"internalType":"bytes32"},{"name":"previousAdminRole","type":"bytes32","indexed":true,"internalType":"bytes32"},{"name":"newAdminRole","type":"bytes32","indexed":true,"internalType":"bytes32"}],"anonymous":false},{"type":"event","name":"RoleGranted","inputs":[{"name":"role","type":"bytes32","indexed":true,"internalType":"bytes32"},{"name":"account","type":"address","indexed":true,"internalType":"address"},{"name":"sender","type":"address","indexed":true,"internalType":"address"}],"anonymous":false},{"type":"event","name":"RoleRevoked","inputs":[{"name":"role","type":"bytes32","indexed":true,"internalType":"bytes32"},{"name":"account","type":"address","indexed":true,"internalType":"address"},{"name":"sender","type":"address","indexed":true,"internalType":"address"}],"anonymous":false},{"type":"event","name":"Unpaused","inputs":[{"name":"account","type":"address","indexed":false,"internalType":"address"}],"anonymous":false},{"type":"event","name":"Withdraw","inputs":[{"name":"__amount","type":"uint256","indexed":false,"internalType":"uint256"}],"anonymous":false},{"type":"event","name":"ZogzEditionsContractUpdate","inputs":[{"name":"__zogzEditionsContractAddress","type":"address","indexed":false,"internalType":"address"}],"anonymous":false},{"type":"error","name":"Forbidden","inputs":[]},{"type":"error","name":"IncorrectPrice","inputs":[]},{"type":"error","name":"InvalidAddress","inputs":[]},{"type":"error","name":"InvalidAmount","inputs":[]},{"type":"error","name":"InvalidProof","inputs":[]},{"type":"error","name":"MerkleRootNotSet","inputs":[]},{"type":"error","name":"NotEnoughClaims","inputs":[]},{"type":"error","name":"WithdrawFailed","inputs":[]}],"bytecode":{"object":"0x6080604052669536c70891000060075567016345785d8a00006008553480156200002857600080fd5b50604051620026d1380380620026d18339810160408190526200004b91620003c2565b6200005633620001f4565b6001805460ff60a01b191681556002556001600160a01b03841615806200008457506001600160a01b038316155b806200009757506001600160a01b038216155b80620000aa57506001600160a01b038116155b15620000c95760405163e6c4247b60e01b815260040160405180910390fd5b600380546001600160a01b03199081166001600160a01b038781169190911790925560048054821686841617815560058054831686851617905560068054909216928416929092179055600960205260017f92e85d02570a8092d09a6e3a57665bc3815a2699a4074001bf1ccabf660f5a3655600a7fc575c31fea594a6eb97c8e9d3f9caee4c16218c6ef37e923234c0fe9014a61e75560327f6cde3cea4b3a3fb2488b2808bae7556f4a405e50f65e1794383bc026131b13c3556101f47f74b05292d1d4b2b48b65261b07099d24244bcb069f138d9a6bfdcf776becac4c556000526102587f8dc18c4ccfd75f5c815b63770fa542fd953e8fef7e0e44bbdd4913470ce7e9cb5533620001dc62000246565b620001e9600082620002a9565b50505050506200041f565b600180546001600160a01b038381166001600160a01b0319831681179093556040519116919082907f8be0079c531659141344cd1fd0a4f28419497f9722a3daafe3b4186f6b6457e090600090a35050565b620002506200034a565b6001805460ff60a01b1916600160a01b1790557f62e78cea01bee320cd4e420270b5ea74000d11b0c9f74754ebdbfc544b05a2586200028c3390565b6040516001600160a01b03909116815260200160405180910390a1565b6000828152602081815260408083206001600160a01b038516845290915290205460ff1662000346576000828152602081815260408083206001600160a01b03851684529091529020805460ff19166001179055620003053390565b6001600160a01b0316816001600160a01b0316837f2f8788117e7eff1d82e926ec794901d17c78024a50270940304540a733656f0d60405160405180910390a45b5050565b6200035e600154600160a01b900460ff1690565b15620003a35760405162461bcd60e51b815260206004820152601060248201526f14185d5cd8589b194e881c185d5cd95960821b604482015260640160405180910390fd5b565b80516001600160a01b0381168114620003bd57600080fd5b919050565b60008060008060808587031215620003d957600080fd5b620003e485620003a5565b9350620003f460208601620003a5565b92506200040460408601620003a5565b91506200041460608601620003a5565b905092959194509250565b6122a2806200042f6000396000f3fe6080604052600436106101d85760003560e01c80637cb6475911610102578063a7ccabdf11610095578063ee1810e211610064578063ee1810e21461055f578063f01cd52c1461057f578063f2fde38b14610592578063f4a0a528146105b257600080fd5b8063a7ccabdf146104ec578063ab2704761461050c578063d547741f1461052c578063e601c5871461054c57600080fd5b8063903f16a3116100d1578063903f16a31461045e57806391d1485414610473578063a0712d68146104c4578063a217fddf146104d757600080fd5b80637cb64759146103df5780638456cb59146103ff578063853828b6146104145780638da5cb5b1461042957600080fd5b8063355b14cd1161017a5780635dcfc5e7116101495780635dcfc5e71461035f57806367bda1fe146103725780636817c76c146103b5578063715018a6146103ca57600080fd5b8063355b14cd146102da57806336568abe146102fa5780633f4ba83a1461031a5780635c975abb1461032f57600080fd5b8063248a9ca3116101b6578063248a9ca3146102475780632e1a7d4d146102855780632eb4a7ab146102a55780632f2ff15d146102ba57600080fd5b806301a51d4f146101dd57806301ffc9a7146101ff5780630249c30214610234575b600080fd5b3480156101e957600080fd5b506101fd6101f8366004611e7c565b6105d2565b005b34801561020b57600080fd5b5061021f61021a366004611e97565b610654565b60405190151581526020015b60405180910390f35b6101fd610242366004611ed9565b6106ed565b34801561025357600080fd5b50610277610262366004611efb565b60009081526020819052604090206001015490565b60405190815260200161022b565b34801561029157600080fd5b506101fd6102a0366004611efb565b6108bb565b3480156102b157600080fd5b50600b54610277565b3480156102c657600080fd5b506101fd6102d5366004611f14565b6109b3565b3480156102e657600080fd5b506101fd6102f5366004611efb565b6109dd565b34801561030657600080fd5b506101fd610315366004611f14565b610a1d565b34801561032657600080fd5b506101fd610ad1565b34801561033b57600080fd5b5060015474010000000000000000000000000000000000000000900460ff1661021f565b6101fd61036d366004611f40565b610ae7565b34801561037e57600080fd5b5061027761038d366004611e7c565b73ffffffffffffffffffffffffffffffffffffffff166000908152600a602052604090205490565b3480156103c157600080fd5b50600854610277565b3480156103d657600080fd5b506101fd610d1f565b3480156103eb57600080fd5b506101fd6103fa366004611efb565b610d33565b34801561040b57600080fd5b506101fd610d70565b34801561042057600080fd5b506101fd610d83565b34801561043557600080fd5b5060015460405173ffffffffffffffffffffffffffffffffffffffff909116815260200161022b565b34801561046a57600080fd5b50600754610277565b34801561047f57600080fd5b5061021f61048e366004611f14565b60009182526020828152604080842073ffffffffffffffffffffffffffffffffffffffff93909316845291905290205460ff1690565b6101fd6104d2366004611efb565b610dad565b3480156104e357600080fd5b50610277600081565b3480156104f857600080fd5b506101fd610507366004611e7c565b610ed7565b34801561051857600080fd5b506101fd610527366004611e7c565b610f52565b34801561053857600080fd5b506101fd610547366004611f14565b610fcd565b6101fd61055a366004611efb565b610ff2565b34801561056b57600080fd5b506101fd61057a366004611e7c565b611209565b6101fd61058d366004611fbf565b611284565b34801561059e57600080fd5b506101fd6105ad366004611e7c565b61149d565b3480156105be57600080fd5b506101fd6105cd366004611efb565b611551565b6105da611591565b600680547fffffffffffffffffffffffff00000000000000000000000000000000000000001673ffffffffffffffffffffffffffffffffffffffff83169081179091556040519081527f7a26fd23eb2bf78a831367b34cefbf214038d6a8cb8f964c1dd82b69153daffb906020015b60405180910390a150565b60007fffffffff0000000000000000000000000000000000000000000000000000000082167f7965db0b0000000000000000000000000000000000000000000000000000000014806106e757507f01ffc9a7000000000000000000000000000000000000000000000000000000007fffffffff000000000000000000000000000000000000000000000000000000008316145b92915050565b6106f5611612565b32331461072e576040517fee90c46800000000000000000000000000000000000000000000000000000000815260040160405180910390fd5b610736611683565b60003390503460028460085461074c919061201a565b6107569190612031565b1461078d576040517f99b5cb1d00000000000000000000000000000000000000000000000000000000815260040160405180910390fd5b6006546040517ff5298aca00000000000000000000000000000000000000000000000000000000815273ffffffffffffffffffffffffffffffffffffffff838116600483015260248201859052604482018690529091169063f5298aca90606401600060405180830381600087803b15801561080857600080fd5b505af115801561081c573d6000803e3d6000fd5b50506003546040517f40c10f1900000000000000000000000000000000000000000000000000000000815273ffffffffffffffffffffffffffffffffffffffff85811660048301526024820188905290911692506340c10f199150604401600060405180830381600087803b15801561089457600080fd5b505af11580156108a8573d6000803e3d6000fd5b50505050506108b76001600255565b5050565b6108c3611591565b60006108e460015473ffffffffffffffffffffffffffffffffffffffff1690565b73ffffffffffffffffffffffffffffffffffffffff168260405160006040518083038185875af1925050503d806000811461093b576040519150601f19603f3d011682016040523d82523d6000602084013e610940565b606091505b505090508061097b576040517f750b219c00000000000000000000000000000000000000000000000000000000815260040160405180910390fd5b6040518281527f5b6b431d4476a211bb7d41c20d1aab9ae2321deee0d20be3d9fc9b1093fa6e3d906020015b60405180910390a15050565b6000828152602081905260409020600101546109ce81611708565b6109d88383611712565b505050565b60006109e881611708565b60078290556040518281527ffe13cadd4f938dbd8f1835194f0b85803dfdcbee0c61ffe464b587bb2eb34b72906020016109a7565b73ffffffffffffffffffffffffffffffffffffffff81163314610ac7576040517f08c379a000000000000000000000000000000000000000000000000000000000815260206004820152602f60248201527f416363657373436f6e74726f6c3a2063616e206f6e6c792072656e6f756e636560448201527f20726f6c657320666f722073656c66000000000000000000000000000000000060648201526084015b60405180910390fd5b6108b78282611802565b6000610adc81611708565b610ae46118b9565b50565b610aef611612565b323314610b28576040517fee90c46800000000000000000000000000000000000000000000000000000000815260040160405180910390fd5b610b30611683565b600033905034600285600854610b46919061201a565b610b509190612031565b14610b87576040517f99b5cb1d00000000000000000000000000000000000000000000000000000000815260040160405180910390fd5b600b54600003610bc3576040517f9f8a28f200000000000000000000000000000000000000000000000000000000815260040160405180910390fd5b6000610c4e84848080602002602001604051908101604052809392919081815260200183836020028082843760009201919091525050600b546040517fffffffffffffffffffffffffffffffffffffffff000000000000000000000000606089901b166020820152909250603401905060405160208183030381529060405280519060200120611936565b905080610c87576040517fee90c46800000000000000000000000000000000000000000000000000000000815260040160405180910390fd5b6003546040517f40c10f1900000000000000000000000000000000000000000000000000000000815273ffffffffffffffffffffffffffffffffffffffff848116600483015260248201889052909116906340c10f1990604401600060405180830381600087803b158015610cfb57600080fd5b505af1158015610d0f573d6000803e3d6000fd5b5050505050506109d86001600255565b610d27611591565b610d31600061194c565b565b610d3b611591565b600b8190556040518181527f504f6d8b1719b8a7c8c1a29372a6ccc5cc7223e099f5fef8bea38a566fca44a090602001610649565b6000610d7b81611708565b610ae46119c3565b610d8b611591565b4760006108e460015473ffffffffffffffffffffffffffffffffffffffff1690565b610db5611612565b323314610dee576040517fee90c46800000000000000000000000000000000000000000000000000000000815260040160405180910390fd5b610df6611683565b60085433903490610e0890849061201a565b14610e3f576040517f99b5cb1d00000000000000000000000000000000000000000000000000000000815260040160405180910390fd5b6003546040517f40c10f1900000000000000000000000000000000000000000000000000000000815273ffffffffffffffffffffffffffffffffffffffff838116600483015260248201859052909116906340c10f19906044015b600060405180830381600087803b158015610eb457600080fd5b505af1158015610ec8573d6000803e3d6000fd5b5050505050610ae46001600255565b610edf611591565b600380547fffffffffffffffffffffffff00000000000000000000000000000000000000001673ffffffffffffffffffffffffffffffffffffffff83169081179091556040519081527f95251946d3665c6d527d12324c6b604b14fd6c335d1c42d3269a9efd52cb873d90602001610649565b610f5a611591565b600480547fffffffffffffffffffffffff00000000000000000000000000000000000000001673ffffffffffffffffffffffffffffffffffffffff83169081179091556040519081527f08f3c61fe28061177b189973d0be0936a9ce588617dd7f10ea485e9f49cceac790602001610649565b600082815260208190526040902060010154610fe881611708565b6109d88383611802565b610ffa611612565b323314611033576040517fee90c46800000000000000000000000000000000000000000000000000000000815260040160405180910390fd5b61103b611683565b6007543390349061104d90849061201a565b14611084576040517f99b5cb1d00000000000000000000000000000000000000000000000000000000815260040160405180910390fd5b73ffffffffffffffffffffffffffffffffffffffff8181166000818152600a602052604090819020546004805492517f70a0823100000000000000000000000000000000000000000000000000000000815290810193909352859390929116906370a0823190602401602060405180830381865afa15801561110a573d6000803e3d6000fd5b505050506040513d601f19601f8201168201806040525081019061112e919061206c565b6111389190612085565b1015611170576040517fee3e74af00000000000000000000000000000000000000000000000000000000815260040160405180910390fd5b73ffffffffffffffffffffffffffffffffffffffff81166000908152600a6020526040812080548492906111a5908490612098565b90915550506003546040517f40c10f1900000000000000000000000000000000000000000000000000000000815273ffffffffffffffffffffffffffffffffffffffff838116600483015260248201859052909116906340c10f1990604401610e9a565b611211611591565b600580547fffffffffffffffffffffffff00000000000000000000000000000000000000001673ffffffffffffffffffffffffffffffffffffffff83169081179091556040519081527f1fe4fb26619133516e006c9fc509f156618eb41656bfbee890ae2f9c819bdd7390602001610649565b61128c611612565b3233146112c5576040517fee90c46800000000000000000000000000000000000000000000000000000000815260040160405180910390fd5b6112cd611683565b60008281526009602052604090205433906112e990839061201a565b8414611321576040517f2c5211c600000000000000000000000000000000000000000000000000000000815260040160405180910390fd5b34600285600854611332919061201a565b61133c9190612031565b14611373576040517f99b5cb1d00000000000000000000000000000000000000000000000000000000815260040160405180910390fd5b6005546040517ff5298aca00000000000000000000000000000000000000000000000000000000815273ffffffffffffffffffffffffffffffffffffffff838116600483015260248201869052604482018590529091169063f5298aca90606401600060405180830381600087803b1580156113ee57600080fd5b505af1158015611402573d6000803e3d6000fd5b50506003546040517f40c10f1900000000000000000000000000000000000000000000000000000000815273ffffffffffffffffffffffffffffffffffffffff85811660048301526024820189905290911692506340c10f199150604401600060405180830381600087803b15801561147a57600080fd5b505af115801561148e573d6000803e3d6000fd5b50505050506109d86001600255565b6114a5611591565b73ffffffffffffffffffffffffffffffffffffffff8116611548576040517f08c379a000000000000000000000000000000000000000000000000000000000815260206004820152602660248201527f4f776e61626c653a206e6577206f776e657220697320746865207a65726f206160448201527f64647265737300000000000000000000000000000000000000000000000000006064820152608401610abe565b610ae48161194c565b600061155c81611708565b60088290556040518281527f23050b539195eebd064c1bec834445b7d028a20c345600e868a74d7ca93c5e86906020016109a7565b60015473ffffffffffffffffffffffffffffffffffffffff163314610d31576040517f08c379a000000000000000000000000000000000000000000000000000000000815260206004820181905260248201527f4f776e61626c653a2063616c6c6572206973206e6f7420746865206f776e65726044820152606401610abe565b600280540361167d576040517f08c379a000000000000000000000000000000000000000000000000000000000815260206004820152601f60248201527f5265656e7472616e637947756172643a207265656e7472616e742063616c6c006044820152606401610abe565b60028055565b60015474010000000000000000000000000000000000000000900460ff1615610d31576040517f08c379a000000000000000000000000000000000000000000000000000000000815260206004820152601060248201527f5061757361626c653a20706175736564000000000000000000000000000000006044820152606401610abe565b610ae48133611a32565b60008281526020818152604080832073ffffffffffffffffffffffffffffffffffffffff8516845290915290205460ff166108b75760008281526020818152604080832073ffffffffffffffffffffffffffffffffffffffff85168452909152902080547fffffffffffffffffffffffffffffffffffffffffffffffffffffffffffffff001660011790556117a43390565b73ffffffffffffffffffffffffffffffffffffffff168173ffffffffffffffffffffffffffffffffffffffff16837f2f8788117e7eff1d82e926ec794901d17c78024a50270940304540a733656f0d60405160405180910390a45050565b60008281526020818152604080832073ffffffffffffffffffffffffffffffffffffffff8516845290915290205460ff16156108b75760008281526020818152604080832073ffffffffffffffffffffffffffffffffffffffff8516808552925280832080547fffffffffffffffffffffffffffffffffffffffffffffffffffffffffffffff0016905551339285917ff6391f5c32d9c69d2a47ea670b442974b53935d1edc7fd64eb21e047a839171b9190a45050565b6118c1611aea565b600180547fffffffffffffffffffffff00ffffffffffffffffffffffffffffffffffffffff1690557f5db9ee0a495bf2e6ff9c91a7834c1ba4fdd244a5e8aa4e537bd38aeae4b073aa335b60405173ffffffffffffffffffffffffffffffffffffffff909116815260200160405180910390a1565b6000826119438584611b6e565b14949350505050565b6001805473ffffffffffffffffffffffffffffffffffffffff8381167fffffffffffffffffffffffff0000000000000000000000000000000000000000831681179093556040519116919082907f8be0079c531659141344cd1fd0a4f28419497f9722a3daafe3b4186f6b6457e090600090a35050565b6119cb611683565b600180547fffffffffffffffffffffff00ffffffffffffffffffffffffffffffffffffffff16740100000000000000000000000000000000000000001790557f62e78cea01bee320cd4e420270b5ea74000d11b0c9f74754ebdbfc544b05a25861190c3390565b60008281526020818152604080832073ffffffffffffffffffffffffffffffffffffffff8516845290915290205460ff166108b757611a7081611bbb565b611a7b836020611bda565b604051602001611a8c9291906120cf565b604080517fffffffffffffffffffffffffffffffffffffffffffffffffffffffffffffffe0818403018152908290527f08c379a0000000000000000000000000000000000000000000000000000000008252610abe91600401612150565b60015474010000000000000000000000000000000000000000900460ff16610d31576040517f08c379a000000000000000000000000000000000000000000000000000000000815260206004820152601460248201527f5061757361626c653a206e6f74207061757365640000000000000000000000006044820152606401610abe565b600081815b8451811015611bb357611b9f82868381518110611b9257611b926121a1565b6020026020010151611e24565b915080611bab816121d0565b915050611b73565b509392505050565b60606106e773ffffffffffffffffffffffffffffffffffffffff831660145b60606000611be983600261201a565b611bf4906002612098565b67ffffffffffffffff811115611c0c57611c0c612208565b6040519080825280601f01601f191660200182016040528015611c36576020820181803683370190505b5090507f300000000000000000000000000000000000000000000000000000000000000081600081518110611c6d57611c6d6121a1565b60200101907effffffffffffffffffffffffffffffffffffffffffffffffffffffffffffff1916908160001a9053507f780000000000000000000000000000000000000000000000000000000000000081600181518110611cd057611cd06121a1565b60200101907effffffffffffffffffffffffffffffffffffffffffffffffffffffffffffff1916908160001a9053506000611d0c84600261201a565b611d17906001612098565b90505b6001811115611db4577f303132333435363738396162636465660000000000000000000000000000000085600f1660108110611d5857611d586121a1565b1a60f81b828281518110611d6e57611d6e6121a1565b60200101907effffffffffffffffffffffffffffffffffffffffffffffffffffffffffffff1916908160001a90535060049490941c93611dad81612237565b9050611d1a565b508315611e1d576040517f08c379a000000000000000000000000000000000000000000000000000000000815260206004820181905260248201527f537472696e67733a20686578206c656e67746820696e73756666696369656e746044820152606401610abe565b9392505050565b6000818310611e40576000828152602084905260409020611e1d565b6000838152602083905260409020611e1d565b803573ffffffffffffffffffffffffffffffffffffffff81168114611e7757600080fd5b919050565b600060208284031215611e8e57600080fd5b611e1d82611e53565b600060208284031215611ea957600080fd5b81357fffffffff0000000000000000000000000000000000000000000000000000000081168114611e1d57600080fd5b60008060408385031215611eec57600080fd5b50508035926020909101359150565b600060208284031215611f0d57600080fd5b5035919050565b60008060408385031215611f2757600080fd5b82359150611f3760208401611e53565b90509250929050565b600080600060408486031215611f5557600080fd5b83359250602084013567ffffffffffffffff80821115611f7457600080fd5b818601915086601f830112611f8857600080fd5b813581811115611f9757600080fd5b8760208260051b8501011115611fac57600080fd5b6020830194508093505050509250925092565b600080600060608486031215611fd457600080fd5b505081359360208301359350604090920135919050565b7f4e487b7100000000000000000000000000000000000000000000000000000000600052601160045260246000fd5b80820281158282048414176106e7576106e7611feb565b600082612067577f4e487b7100000000000000000000000000000000000000000000000000000000600052601260045260246000fd5b500490565b60006020828403121561207e57600080fd5b5051919050565b818103818111156106e7576106e7611feb565b808201808211156106e7576106e7611feb565b60005b838110156120c65781810151838201526020016120ae565b50506000910152565b7f416363657373436f6e74726f6c3a206163636f756e74200000000000000000008152600083516121078160178501602088016120ab565b7f206973206d697373696e6720726f6c652000000000000000000000000000000060179184019182015283516121448160288401602088016120ab565b01602801949350505050565b602081526000825180602084015261216f8160408501602087016120ab565b601f017fffffffffffffffffffffffffffffffffffffffffffffffffffffffffffffffe0169190910160400192915050565b7f4e487b7100000000000000000000000000000000000000000000000000000000600052603260045260246000fd5b60007fffffffffffffffffffffffffffffffffffffffffffffffffffffffffffffffff820361220157612201611feb565b5060010190565b7f4e487b7100000000000000000000000000000000000000000000000000000000600052604160045260246000fd5b60008161224657612246611feb565b507fffffffffffffffffffffffffffffffffffffffffffffffffffffffffffffffff019056fea26469706673582212202fc3122adc0462f7e2fc2e7694e39f9b7c7446fbf90f09775adc2b470e910f7c64736f6c63430008130033","linkReferences":{}},"methodIdentifiers":{"DEFAULT_ADMIN_ROLE()":"a217fddf","discountedMintPrice()":"903f16a3","getRoleAdmin(bytes32)":"248a9ca3","grantRole(bytes32,address)":"2f2ff15d","hasRole(bytes32,address)":"91d14854","hedzClaims(address)":"67bda1fe","merkleRoot()":"2eb4a7ab","mint(uint256)":"a0712d68","mintPrice()":"6817c76c","mintWithClaimsDiscount(uint256)":"e601c587","mintWithOwnerDiscount(uint256,bytes32[])":"5dcfc5e7","mintWithPepeEditionsBurn(uint256,uint256,uint256)":"f01cd52c","mintWithZogzEditionsBurn(uint256,uint256)":"0249c302","owner()":"8da5cb5b","pause()":"8456cb59","paused()":"5c975abb","renounceOwnership()":"715018a6","renounceRole(bytes32,address)":"36568abe","revokeRole(bytes32,address)":"d547741f","setDiscountedMintPrice(uint256)":"355b14cd","setHedzOriginalsContract(address)":"ab270476","setMerkleRoot(bytes32)":"7cb64759","setMintPrice(uint256)":"f4a0a528","setNFTContract(address)":"a7ccabdf","setPepeEditionsContract(address)":"ee1810e2","setZogzEditionsContract(address)":"01a51d4f","supportsInterface(bytes4)":"01ffc9a7","transferOwnership(address)":"f2fde38b","unpause()":"3f4ba83a","withdraw(uint256)":"2e1a7d4d","withdrawAll()":"853828b6"},"id":45}